:020000040000FA
:060000000A128A110C280F
:10000800FE00030EF0000A08F1000A128A150F28F4
:100018000A128A110F288313C230FD001530FE0022
:100028008130FF00A03084000A168A1124250A12A4
:100038008A116F30FD000730FE00FC30FF006C3085
:1000480084000A168A1124250A128A1183160313BA
:10005800C701C80183120313DF01E001E101E201D6
:10006800E301E401E501E601E701E801E901EA014C
:10007800EB01F901FA01FB0183010A128A15812CAF
:1000880083120313DE000A168A1197260A128A11B0
:100098001230831203136C06031D53285428F929C0
:1000A8000A128A11EF270A128A112D30F6009130B0
:1000B800F7008030F8000A168A1115260A128A11EC
:1000C8007A0883120313D8005807A03E84008313CC
:1000D8000008F600840A00088403F7008630F80058
:1000E8000A168A1115260A128A116030F600913014
:1000F800F700C030F8000A168A1115260A128A116C
:10010800C630F8000A30F2000030F30083120313FF
:100118006908D800D9015808F4005908F5000A12EE
:100128008A1544200A128A117208303E0A168A116A
:1001380033250A128A11C730F8000A30F20000305D
:10014800F300831203136908D800D9015808F40092
:100158005908F5000A168A11ED260A128A11720842
:10016800303E0A168A1133250A128A11C830F8005F
:100178003A300A168A1133250A128A11C930F80052
:100188000A30F2000030F3007B0883120313D80012
:10019800D9015808F4005908F5000A128A154420B4
:1001A8000A128A117208303E0A168A1133250A1279
:1001B8008A11CA30F8000A30F2000030F3007B08D8
:1001C80083120313D800D9015808F4005908F50020
:1001D8000A168A11ED260A128A117208303E0A168A
:1001E8008A1133250A128A111630F6009130F70069
:1001F8009530F8000A168A1115260A128A1133302A
:1002080083120313DA00BB30D900DF30D800D80BD3
:100218000B29D90B0B29DA0B0B290A128A11EF27A4
:100228000A128A118330F6009030F7008030F80007
:100238000A168A1115260A128A112630F6009130FC
:10024800F700C030F8000A168A1115260A128A111A
:10025800AC30F6009030F700C030F8000A168A116A
:1002680015260A128A110030F6009030F700D030B7
:10027800F8000A168A1115260A128A118312031326
:100288006908D800D9015808F2005908F3003C3031
:10029800F4000030F5000A168A11C7250A128A11DF
:1002A8007B08720783120313E10000300318013042
:1002B8007307E2006208E0006108DF006108F200ED
:1002C8006208F3000030F31BFF30F400F500013042
:1002D8000A128A1135270A128A1175088312031324
:1002E800B1007408B0007308AF007208AE003E3069
:1002F800AD00EB30AC008530AB001F30AA000A120D
:100308008A11F0230A128A11831203132D08C700D9
:100318002C08C6002B08C5002A08C4000A128A1532
:10032800AD200A128A11831203134508E400440819
:10033800E3006108F2006208F3000030F31BFF30AD
:10034800F400F50001300A128A1135270A128A11C1
:10035800750883120313B1007408B0007308AF0066
:100368007208AE003D30AD00F530AC00C230AB00D5
:100378008F30AA000A128A11F0230A128A118312F6
:1003880003132D08C7002C08C6002B08C5002A082F
:10039800C4000A128A15AD200A128A1183120313A7
:1003A8004508E6004408E5006309D8006409D90057
:1003B800D80A0319D90A65085802DA006608031C26
:1003C800660A5902DB0061085A0783160313C7003F
:1003D8008312031362080318620A5B078316031368
:1003E800C80083120313071512151F305E06031D7C
:1003F800FE29FF29032A071112110530ED006908AB
:10040800D800D9015808F2005908F3003C30F4002C
:100418000030F5000A168A11C7250A128A117B08CE
:10042800720783120313E1000030031801307307C9
:10043800E20008307A020318222A232A822A630853
:100448005F02D8006408031C640A6002D9005908D6
:100458006202031D312A58086102031C342A352A16
:10046800412A4230F6009130F7008B30F8000A1626
:100478008A1115260A128A11372B6309D8006409D4
:10048800D900D80A0319D90A831603134708831217
:1004980003135802DA00831603134808031C480A9A
:1004A800831203135902DB005F085A07DC00600857
:1004B8000318600A5B07DD005D086202031D662AF7
:1004C8005C086102031C692A6A2A762A4E30F60003
:1004D8009130F7008B30F8000A168A1115260A1297
:1004E8008A11372B4830F6009130F7008B30F8002E
:1004F8000A168A1115260A128A11372B08307A062D
:10050800031D872A882A1A2B6108F2006208F30063
:100518000030F31BFF30F400F50001300A128A1195
:1005280035270A128A11750883120313CF0074083D
:10053800CE007308CD007208CC005F08F200600896
:10054800F3000030F31BFF30F400F50001300A120D
:100558008A1135270A128A11750883120313CB00F2
:100568007408CA007308C9007208C8005F08F2005E
:100578006008F3000030F31BFF30F400F500013091
:100588000A128A1135270A128A1175088312031371
:10059800B1007408B0007308AF007208AE003E30B6
:1005A800AD00CC30AC00CC30AB00CD30AA000A1284
:1005B8008A11F0230A128A11831203132D08C70027
:1005C8002C08C6002B08C5002A08C4000A168A1180
:1005D800A3250A128A11831203134708D300460879
:1005E800D2004508D1004408D0000A128A152521F6
:1005F8000A128A11031C012B022B0E2B4E30F60017
:100608009130F7008B30F8000A168A1115260A1265
:100618008A11372B4830F6009130F7008B30F800FC
:100628000A168A1115260A128A11372B09307A06FA
:10063800031D1F2B202B2C2B4830F6009130F70080
:100648008B30F8000A168A1115260A128A11372BE0
:100658004230F6009130F7008B30F8000A168A1104
:1006680015260A128A11C630F8000A30F200003046
:10067800F300831203136908D800D9015808F4005D
:100688005908F5000A128A1544200A128A117208BC
:10069800303E0A168A1133250A128A11C730F8002B
:1006A8000A30F2000030F300831203136908D800FF
:1006B800D9015808F4005908F5000A168A11ED26E0
:1006C8000A128A117208303E0A168A1133250A1254
:1006D8008A11C830F8003A300A168A1133250A12EE
:1006E8008A11C930F8000A30F2000030F3007B08A4
:1006F80083120313D800D9015808F4005908F500EB
:100708000A128A1544200A128A117208303E0A1603
:100718008A1133250A128A11CA30F8000A30F20009
:100728000030F3007B0883120313D800D90158085E
:10073800F4005908F5000A168A11ED260A128A11E2
:100748007208303E0A168A1133250A128A117B086C
:10075800031DAF2BB02BEF2B831203136908031D66
:10076800B62BB72BEF2B0711121187140A128A1117
:10077800EF270A128A113030F6009030F7008030E7
:10078800F8000A168A1115260A128A113F30F60057
:100798009030F700C030F8000A168A1115260A12A0
:1007A8008A11333083120313DA00BB30D900DF30EB
:1007B800D800D80BDD2BD90BDD2BDA0BDD2B831200
:1007C80003138710ED01ED0A1030EC000A128A11AC
:1007D800EF270A128A110800831203132D088039A3
:1007E800B7002D08B2003207BD00AC1FFC2BFD2B53
:1007F800FE2B3D143D080319022C032C122C3D0A34
:10080800031D072C082C102C0030AD000030AC0064
:100818000030AB000030AA00AC171A2C0030AD0035
:100828000030AC000030AB000030AA00310880393D
:10083800FF007F08B7063108B2003207B800B01FC2
:10084800262C272C282C3814380803192C2C2D2C4E
:100858003C2C380A031D312C322C3A2C0030B100C4
:100868000030B0000030AF000030AE00B017442CAC
:100878000030B1000030B0000030AF000030AE00F2
:1008880038080319482C492C4E2C3D08031D4D2CC3
:100898004E2C572C0030AD000030AC000030AB00BF
:1008A8000030AA00342F2A08F20030080A168A11EC
:1008B800EC250A128A11730883120313C300720805
:1008C800C2004208B200B301B401B5013508BC004A
:1008D8003408BB003308BA003208B9004308B20034
:1008E800B301B401B5013508C1003408C0003308AC
:1008F800BF003208BE002B08F2002F080A168A1122
:10090800EC250A128A11730883120313C3007208B4
:10091800C2004208B200B301B401B5013208B907F8
:10092800330803110318013E03199B2CBA07340836
:1009380003110318013E0319A22CBB073508031144
:100948000318013E0319A92CBC074308B200B301E0
:10095800B401B5013208BE07330803110318013E7C
:100968000319B72CBF07340803110318013E0319F4
:10097800BE2CC007350803110318013E0319C52C06
:10098800C1072C08F2002E080A168A11EC250A1253
:100998008A11730883120313C3007208C200420845
:1009A800B200B301B401B5013208B9073308031125
:1009B8000318013E0319E12CBA0734080311031880
:1009C800013E0319E82CBB07350803110318013E43
:1009D8000319EF2CBC074308B200B301B401B501F9
:1009E8003208BE07330803110318013E0319FD2C12
:1009F800BF07340803110318013E0319042DC0076B
:100A0800350803110318013E03190B2DC1070830DF
:100A1800B2000310B90DBA0DBB0DBC0DB20B0D2DF4
:100A28002B08F2002E080A168A11EC250A128A11E0
:100A3800730883120313C3007208C2004208B2008D
:100A48004308B300B401B5013208B90733080311EC
:100A58000318013E0319312DBA073408031103188E
:100A6800013E0319382DBB07350803110318013E51
:100A780003193F2DBC072A08F2002F080A168A110D
:100A8800EC250A128A11730883120313C300720833
:100A9800C2004208B2004308B300B401B5013208ED
:100AA800B907330803110318013E03195C2DBA076F
:100AB800340803110318013E0319632DBB073508D9
:100AC80003110318013E03196A2DBC070830B20050
:100AD8000310B90DBA0DBB0DBC0DB20B6C2D2A0855
:100AE800F2002E080A168A11EC250A128A117308D8
:100AF80083120313C3007208C2004208B2004308FD
:100B0800B300B401B5013208B9073308031103185B
:100B1800013E0319902DBA07340803110318013E4A
:100B28000319972DBB07350803110318013E031954
:100B38009E2DBC072B08F20030080A168A11EC25F6
:100B48000A128A11730883120313C3007208C200C1
:100B58004208B2004308B300B401B5013208BE0729
:100B6800330803110318013E0319BB2DBF073408CE
:100B780003110318013E0319C22DC00735080311DC
:100B88000318013E0319C92DC1072C08F2002F08CC
:100B98000A168A11EC250A128A11730883120313A4
:100BA800C3007208C2004208B2004308B300B4018F
:100BB800B5013208BE07330803110318013E0319B3
:100BC800E62DBF07340803110318013E0319ED2D64
:100BD800C007350803110318013E0319F42DC10796
:100BE8002C08F20030080A168A11EC250A128A111C
:100BF800730883120313C3007208C2004208B200CC
:100C08004308B300B401B50108300310B20DB30DA9
:100C1800B40DB50DFF3E031D092E3208BE0733087B
:100C280003110318013E03191A2EBF0734080311D4
:100C38000318013E0319212EC007350803110318B4
:100C4800013E0319282EC1073908B2003A08B3003B
:100C58003B08B4003C08B50018300310B50CB40CC0
:100C6800B30CB20CFF3E031D312E3208BE07330809
:100C780003110318013E0319422EBF07340803115C
:100C88000318013E0319492EC0073508031103183C
:100C9800013E0319502EC1070830B2000310B90DE8
:100CA800BA0DBB0DBC0DB20B522E3D083807B20071
:100CB800B301B30D3208823EC20033080318013E67
:100CC800FF3EC300842E0130B2000310BE0DBF0DDD
:100CD800C00DC10DB20B692EBC1F732E742E752E5C
:100CE8003E140130B2000310B90DBA0DBB0DBC0D96
:100CF800B20B772EFF30C2070318C30AFF30C307B1
:100D0800C01F872E882E672EB801BC1F8C2E8D2EF3
:100D1800A92EFF303905B200FF303A05B300FF3085
:100D28003B05B4007F303C05B50035083404330476
:100D380032040319A02EA12EA42EB801B80AA92E98
:100D48003E1CA72EA82EA92EA12E38080319AD2EB9
:100D5800AE2EDF2E0130BE07003003180130BF076A
:100D6800003003180130C007003003180130C107F4
:100D7800411CBF2EC02EDF2E3E08B2003F08B30034
:100D88004008B4004108B5000130B600350DB50C77
:100D9800B40CB30CB20CB60BCA2E3508C10034081B
:100DA800C0003308BF003208BE000130C207031874
:100DB800C30A0030C3074308803AFF0080307F022F
:100DC800031DE82EFF304202031CEB2EEC2EF72EFB
:100DD8007F3083120313C1008030C0000030BF0091
:100DE8000030BE00282F831203134308803AFF0007
:100DF80080307F02031D022F013042020318052FA5
:100E0800062F122F003083120313C1000030C000D8
:100E18000030BF000030BE00B701282F8312031333
:100E28004208BD00FF30BE05FF30BF057F30C0055A
:100E38000030C1053D1C212F222F232FC0173D084C
:100E4800B2000310320CC1003708FF007F08C1044C
:100E58004108AD004008AC003F08AB003E08AA00BE
:100E6800080083120313A400240803193C2F3D2F04
:100E7800512FF51F402F412F512F7209A6007309DA
:100E8800A7007409A8007509A900A60A0319A70AEA
:100E98000319A80A0319A90A592F7508A900740883
:100EA800A8007308A7007208A600750874047304E4
:100EB8007204031D602F612F6A2F0030F500003087
:100EC800F4000030F3000030F200EE2F9630A50059
:100ED8007A2F0130FF007F08A50701300310A90C05
:100EE800A80CA70CA60CFF3E031D722FFE30290587
:100EF800031D7F2F802F6D2F9C2F0130FF007F084F
:100F0800A5070130A607003003180130A7070030F5
:100F180003180130A807003003180130A907013071
:100F28000310A90CA80CA70CA60CFF3E031D942FB8
:100F3800FF302905031DA12FA22F812FAE2F0130CD
:100F4800A5020130A0000310A60DA70DA80DA90D3C
:100F5800A00BA72FA81BB12FB22FB82F0230250244
:100F68000318B72FB82FA32F2518BB2FBC2FC42FBA
:100F7800FF30A605FF30A7057F30A805FF30A9057B
:100F88000310A50C2508A000A101A201A301183097
:100F98000310A00DA10DA20DA30DFF3E031DCC2F24
:100FA8002008A6042108A7042208A8042308A904E5
:100FB80024080319E02FE12FE62FF51FE42FE52F72
:100FC800E62FA9172908F5002808F4002708F300D8
:100FD8002608F2000800F20101300A168A1161257C
:100FE8000A128A11A630F600F60BF82F0000080046
:060FF80010340134013445
:10100800831603138801091189100A168A114426C8
:101018000A128A150800831203138C1C1428152839
:101028003D280130E7070318E80A0030E8072030B8
:1010380067064E3003196806031D232824283C2818
:10104800E701E8017B0803192A282B282E280130FC
:10105800FB023C287B08031D322833283C286908FA
:101068000319372838283C280130E9023B30FB00B7
:101078008C1071088A00700E8300FE0E7E0E090027
:1010880083120313A101F31F4A284B285228F2099F
:10109800F309F20A0319F30AA101A10AF51F552859
:1010A80056285F28F409F509F40A0319F50A0130EE
:1010B800FF007F08A106A201A301720873040319A7
:1010C800662867289E28A001A00A75280130031009
:1010D800F20DF30DFF3E031D6B280130FF007F0862
:1010E800A007F31F782879286A2801300310A20D79
:1010F800A30DFF3E031D7A2873087502031D862879
:1011080072087402031C89288A2891287208F4023C
:101118007308031CF503F502221401300310F30CC5
:10112800F20CFF3E031D92280130A002031D9D28EA
:101138009E28792821080319A228A328A828A209EB
:10114800A309A20A0319A30A2308F3002208F2003C
:101158000800031083120313460D470DF7007708A4
:10116800031DB728B828C1280030C7000030C600C2
:101178000030C5000030C40024294408C8004508D0
:10118800C9004608CA004708CB001F300310CB0C23
:10119800CA0CC90CC80CFF3E031DCA284808F60033
:1011A800C617FF30C405FF30C505FF30C60500303F
:1011B800C7059630F702F71FE228E328FD287708CD
:1011C800803A973E0318E928EA28EB28B828013026
:1011D8000310C70CC60CC50CC40CFF3E031DEC283D
:1011E8000130FF007F08F707031DFB28FC28EB28C8
:1011F800142920307702031C022903290F29B82853
:101208000130C8000310C40DC50DC60DC70DC80BAD
:1012180006290130F7027708031D13291429042928
:1012280076080319182919292429C409C509C609E2
:10123800C709C40A0319C50A0319C60A0319C70A44
:1012480008000030831203134C05D40000304D050C
:10125800D50080304E05D6007F304F05D70057089F
:10126800560455045404031D3A293B2943290030E8
:10127800CF000030CE000030CD000030CC00003070
:101288005005D40000305105D50080305205D600F5
:101298007F305305D7005708560455045404031DDE
:1012A800562957295F290030D3000030D20000307A
:1012B800D1000030D000CF1F622963298729003070
:1012C800D4000030D5000030D6008030D7004C085C
:1012D800D4024D08031C4D0F72297329D5024E08FC
:1012E800031C4E0F78297929D6024F08031C4F0F8B
:1012F8007E297F29D7025708CF005608CE00550807
:10130800CD005408CC00D31F8A298B29AF2900307F
:10131800D4000030D5000030D6008030D700500807
:10132800D4025108031C510F9A299B29D50252084F
:10133800031C520FA029A129D6025308031C530FDE
:10134800A629A729D7025708D3005608D20055085E
:10135800D1005408D0008030CF068030D30653081F
:101368004F02031DC12952084E02031DC12951080D
:101378004D02031DC12950084C020318C429C52970
:10138800C7290310C82903140800722A2130FB005A
:1013980083120313E901982A2930FB00CC292D3048
:1013A800FB00CC297908003A0319D029013A03191E
:1013B800CA29033A0319D029013A0319D329073A4C
:1013C8000319D329982A2B30FB00CC293230FB0093
:1013D800CC293930FB00CC297908003A0319EA29CD
:1013E800013A0319E729033A0319EA29013A0319CB
:1013F800ED29073A0319ED29982A1A30FB00CC2960
:101408001F30FB00CC297908003A0319012A013A58
:101418000319012A033A0319012A013A0319042A74
:10142800073A0319042A982A1030FB008312031381
:10143800E901E90A982A2430FB001A2A2430FB0023
:10144800CC291D30FB00CC292E30FB00CC293530AF
:10145800FB00CC29FB011A2A7908003A03192B2A28
:10146800013A0319282A033A03192B2A013A0319C6
:101478002E2A073A03192E2A982A1230FB00CC2963
:101488001430FB00CC297908003A0319442A013AA0
:101498000319412A033A0319442A013A0319442A31
:1014A800073A0319442A982A0630FB00CC29103041
:1014B800FB00CC291530FB00CC297908003A031928
:1014C8005E2A013A03195B2A033A03195E2A013A94
:1014D8000319012A073A0319012A982A7A08003AB7
:1014E8000319D629013A0319F029033A0319072ADF
:1014F800013A0319182A073A03191F2A013A03194E
:10150800222A033A0319252A013A0319302A0F3AE5
:101518000319472A013A0319582A033A0319612A79
:10152800013A0319612A982A080083120313A700B5
:1015380010306C06031DA12AA22AA82A0A128A11B1
:10154800EF270A128A15FA01373083120313270688
:10155800031DAF2AB02AC02A0130FF007F08FA070E
:101568000A128A11EF270A128A150C307A06031D0F
:10157800BE2ABF2AC02AFA012030F6009030F700B0
:101588008030F8000A168A1115260A128A15C0300A
:10159800F8002A300A168A1133250A128A150A30E9
:1015A8007A020318D82AD92A192B7A088312031326
:1015B800A5002507A03E840083130008F600840ACE
:1015C80000088403F700C230F8000A168A111526AD
:1015D8000A128A157A0883120313A5002507A23E6A
:1015E800840083130008F600840A00088403F700C7
:1015F8009230F8000A168A1115260A128A157A08F6
:1016080083120313A5002507A43E84008313000852
:10161800F600840A00088403F700D230F8000A169E
:101628008A1115260A128A158C2B0A307A06031D90
:101638001E2B1F2B572B7A0883120313A50025078F
:10164800A03E840083130008F600840A000884037F
:10165800F700C230F8000A168A1115260A128A15F0
:101668007A0883120313A5002507A23E840083137A
:101678000008F600840A00088403F7009230F80096
:101688000A168A1115260A128A15831603132008CA
:10169800F6002108F700D230F8000A168A1115263C
:1016A8000A128A158C2B0B307A06031D5C2B5D2BD6
:1016B8008C2B7A0883120313A5002507A03E84000B
:1016C80083130008F600840A00088403F700C23078
:1016D800F8000A168A1115260A128A1583160313AA
:1016E8002008F6002108F7009230F8000A168A113F
:1016F80015260A128A15831603132208F6002308F2
:10170800F700D230F8000A168A1115260A128A152F
:10171800080083120313A70011306C06031D952BD4
:10172800962B9C2BF9010A128A11EF270A128A15A7
:101738003730831203132706031DA32BA42BB42BC6
:101748000130FF007F08F90705307906031DAD2B2E
:10175800AE2BAF2BF9010A128A11EF270A128A154C
:101768005C30F6009030F7008030F8000A168A11D5
:1017780015260A128A15C030F8002A300A168A116E
:1017880033250A128A15033079020318CC2BCD2B86
:101798000D2C790883120313A5002507B83E840091
:1017A80083130008F600840A00088403F700C23097
:1017B800F8000A168A1115260A128A157908831262
:1017C8000313A5002507BA3E840083130008F6001A
:1017D800840A00088403F7009230F8000A168A1178
:1017E80015260A128A15790883120313A5002507FE
:1017F800BC3E840083130008F600840A00088403B2
:10180800F700D230F8000A168A1115260A128A152E
:10181800802C03307906031D122C132C4B2C7908CD
:1018280083120313A5002507B83E8400831300081C
:10183800F600840A00088403F700C230F8000A168C
:101848008A1115260A128A15790883120313A5002E
:101858002507BA3E840083130008F600840A0008AE
:101868008403F7009230F8000A168A1115260A1226
:101878008A15831603133808F6003908F700D230A2
:10188800F8000A168A1115260A128A15802C0430C7
:101898007906031D502C512C802C790883120313D0
:1018A800A5002507B83E840083130008F600840AC3
:1018B80000088403F700C230F8000A168A111526BA
:1018C8000A128A15831603133808F6003908F70038
:1018D8009230F8000A168A1115260A128A158316FC
:1018E80003133A08F6003B08F700D230F8000A164E
:1018F8008A1115260A128A1508000A168A1148251F
:101908000A128A1501300A168A11A1270A128A15A5
:101918004E30F6009030F7008130F8000A168A1130
:1019280015260A128A150430F6009130F700C430E3
:10193800F8000A168A1115260A128A151030F600C0
:101948009030F7009130F8000A168A1115260A120D
:101958008A15C22CB83083160313C2000B30C3009B
:101968000130C2020030031CC303C302420A031D34
:10197800C12C430A031DC12CC22CB42C01300A16F9
:101988008A11A1270A128A152F3A031DCC2CCD2CB7
:10199800AE2C0A168A1146270A128A1501300A1631
:1019A8008A11A1270A128A1583160313C600B830B4
:1019B800C4000B30C5000130C4020030031CC5034D
:1019C800C502440A031DEC2C450A031DEC2CED2C22
:1019D800DF2CB7304606031DF22CF32CFF2C8312A4
:1019E80003136D03031DF92CFA2CFF2C0230ED00B4
:1019F8001130EC003E2DB730831603134606031D45
:101A0800062D072D3E2D0230831203136D06031D8C
:101A18000E2D0F2D3E2D0A128A15C9210A128A157C
:101A2800033083120313ED000A128A11EF270A12FA
:101A38008A157630F6009030F7008130F8000A16E3
:101A48008A1115260A128A15A730F6009030F70079
:101A5800C130F8000A168A1115260A128A15C830EC
:101A6800F6009030F7009130F8000A168A11152612
:101A78000A128A152F30831603134606031D452DB7
:101A8800462D8A2D0530831203136D06031D4D2D37
:101A98004E2D8A2D121507150430ED008A2D831658
:101AA800031346080A128A1599220A128A15992DD3
:101AB8008316031346080A128A158D230A128A15FB
:101AC800992D2F30831603134606031D6C2D6D2D9B
:101AD800742D043083120313ED001230EC00D22C65
:101AE8001F304606031D792D7A2D992D8312031375
:101AF800ED01ED0A1030EC00D22C831603134608D2
:101B08000A128A1144200A128A15992D83126D0827
:101B1800013A0319532D033A03195C2D013A0319AD
:101B2800652D073A0319812D992D83120313EC01B2
:101B3800D22C0A128A110C28831203132308803925
:101B4800F2002308A8002807F400A21FAC2DAD2D31
:101B5800AE2D741474080319B22DB32DC32D740A55
:101B6800031DB72DB82DC02D0030A3000030A200F2
:101B78000030A1000030A000A217A301CB2D003037
:101B8800A3000030A2000030A1000030A000270808
:101B98008039F300730872060319D32DD42DD52D7F
:101BA80072172708A8002807F300A61FDC2DDD2DD3
:101BB800DE2D731473080319E22DE32DF32D730A38
:101BC800031DE72DE82DF02D0030A7000030A600FA
:101BD8000030A5000030A400A617A701FB2D003097
:101BE800A7000030A6000030A5000030A40074084B
:101BF80073020318002E012E272E721F042E052EA5
:101C0800092E8030FF007F08F2067408F50073087B
:101C1800F4007508F3002008F5002408A0007508F2
:101C2800A4002108F5002508A1007508A5002208D0
:101C3800F5002608A2007508A6002308F500270865
:101C4800A3007508A700F5017308A800A9012908D1
:101C5800AB0074082802AA00031CAB032B08803AC7
:101C6800FF0080307F02031D3B2E1A302A02031C1E
:101C78003E2E3F2E7A2E83120313230822042104BA
:101C88002004031D482E4A2E01304B2E0030F5004B
:101C98000030A3000030A2000030A1000030A000F6
:101CA8007308F400802E751C5A2E5B2E642E75085E
:101CB80083120313A8000310280C0138F500662EC0
:101CC8000310F50C83120313201C6B2E6C2E6D2E43
:101CD800F5170130A800230DA30CA20CA10CA00C31
:101CE800A80B6F2E0130FF007F08F40773087402F9
:101CF800031C7F2E802E572E721B832E842ED12EEE
:101D08007408031D882E892E942E00308312031325
:101D1800A3000030A2000030A1000030A000FF2F77
:101D2800831203132408A007250803110318013E92
:101D380003199F2EA107260803110318013E031952
:101D4800A62EA207270803110318013E0319AD2E7A
:101D5800A307231CB02EB12E872F751CB42EB52EC9
:101D6800BC2E7508A8000310280C0138F500BE2EFB
:101D78000310F50C201CC12EC22EC32EF5170130FE
:101D8800A800230DA30CA20CA10CA00CA80BC52E17
:101D98000130FF007F08F407872F831203132308FD
:101DA800803AFF002708803A7F02031DE52E2608A7
:101DB8002202031DE52E25082102031DE52E240815
:101DC80020020318E82EE92E412FFF30A800FF302B
:101DD800A900FF30AA00FF30AB002408AC0025089A
:101DE800AD002608AE002708AF002008AC02210885
:101DF800031C210F002F012FAD022208031C220F04
:101E0800062F072FAE022308031C230F0C2F0D2FBC
:101E1800AF022C08A8072D0803182D0F142F152F13
:101E2800A9072E0803182E0F1A2F1B2FAA072F08F1
:101E380003182F0AAB072B08A3002A08A2002908B9
:101E4800A1002808A0008030FF007F08F206F509ED
:101E5800F50A7508031D312F322F4F2F0130A007C7
:101E6800003003180130A107003003180130A20721
:101E7800003003180130A3074F2F2408A0022508BB
:101E8800031C250FA1022608031C260FA2022708FF
:101E9800031C270FA3022308220421042004031D86
:101EA800562F572F832F7508031D5B2F5C2F832F09
:101EB8000030A3000030A2000030A1000030A000D4
:101EC800FF2F0130A8000310A00DA10DA20DA30D36
:101ED800A80B672FF51F712F722F732F2014751CF5
:101EE800762F772F7A2F0314F50D7C2F0310F50D1D
:101EF80074080319802F812F832F0130F402A21F49
:101F0800862F872F652FF301F51F8B2F8C2F9A2F84
:101F180075087F390319912F922F952FF301F30A32
:101F28009A2F201C982F992F9A2F922F73080319F4
:101F38009E2F9F2FD32F0130A007003003180130A8
:101F4800A107003003180130A20700300318013040
:101F5800A307231CB02FB12FD32F2008A8002108D6
:101F6800A9002208AA002308AB000130AC002B0D01
:101F7800AB0CAA0CA90CA80CAC0BBB2F2B08A3000C
:101F88002A08A2002908A1002808A000740A031939
:101F9800CE2FCF2FD32F0130FF007F08F407740A0C
:101FA8000319D72FD82FDD2F7408031DDC2FDD2F41
:101FB800EB2F0030A3000030A2000030A100003059
:101FC800A0007408031DE92FEA2FEB2FF201741CFF
:101FD800EE2FEF2FF12FA217F52F7F30FF007F088C
:101FE800A2057408A8000310280CA300F21FFD2FF7
:101FF800FE2FFF2FA317080035342D3453345434E3
:10200800413452345434203436342D34503441342D
:102018005534533445340034573461347334683498
:1020280069346E34673420344D3461346334683431
:1020380069346E3465340034573461347334683429
:1020480069346E3467342034503472346F346734F2
:10205800723461346D340034503472346F34673400
:102068002E3443346F346D3470346C3465347434C6
:10207800653464340034523465346D346F347634E6
:102088006534203443346C346F34743468346534C4
:1020980073340034503472346534733473342034F8
:1020A8004B34653479343534203454346F34003447
:1020B8005734613474346534723420344C346534A4
:1020C800763465346C343A34003450346C346534C6
:1020D800613473346534203443346C346F3473346E
:1020E80065340034503472346534733473342034B6
:1020F8005334773469347434633468340034463480
:1021080075346E346334743469346F346E34203407
:102118002D342034003444346F346F347234203416
:102128003A3420344F34503445344E34003450342B
:102138006F3477346534723469346E3467342034DC
:102148004F346E3400345334573435343A342034F1
:102158005334543441345234543400344134713497
:10216800753461342034733474346F3472346534A4
:102178000034453463346F3463346F3474347434E6
:102188006F346E34733400345334573436343A343D
:102198002034533454344F3450340034533474346A
:1021A800613469346E34773461347334683400349C
:1021B800443465346C34693463346134743465345C
:1021C80073340034423465346434733468346534A9
:1021D8006534743473340034573461347334683478
:1021E80020346F346E346C347934003452346934AA
:1021F8006E34733465342B34443472347934003497
:1022080050346F3477346534723420344F344E345C
:10221800003444347234793420346F346E346C347E
:102228007934003428344D344D343A3453345334EB
:102238002934003457346F346F346C3465346E3459
:1022480073340034543469346D3465343A3420348A
:102258000034503472346F3467343A3420340034E4
:102268004D3465346434693475346D34003457340E
:1022780068346934743465347334003457346134E1
:1022880073346834203400345334703469346E3411
:1022980020340034523469346E3473346534003475
:1022A8004434613469346C347934003448346534E6
:1022B8006134763479340034543469346D34653497
:1022C8000034483469346734683400344134753430
:1022D80074346F3400344C346F34773400344D34F4
:1022E800613478340034FF1B812983137F188317E6
:1022F8000008840A0319FF0A08007F087F398A004A
:0A2308000408840A0319FF0A82008A
:102A22008316031306083F3886000800FA3083161F
:102A3200031392008C1483120313121108007E08F0
:102A42008A007F0882000A168A1120250A168A1136
:102A52008000840A04087D0603190034FF0A031962
:102A6200FE0A242D83120313A400F20178080A1629
:102A72008A1161250A168A11F201F20A83120313DE
:102A820024080A168A1161250A168A1108000A16F4
:102A92008A1111250A168A110A128A1504200A16A9
:102AA2008A118316031307118710831203138710E9
:102AB2000A168A1117250A168A110B178B17080096
:102AC200F5007218652D692D8312031309156C2DFB
:102AD200831203130911750888008914A630F300C4
:102AE200F30B712D00008312031389101B30F400C5
:102AF2009E30F300F30B7B2DF40B7B2D00000800BE
:102B0200543491345A349134DC3490343B3491341B
:102B1200D2349034BD3490341E349134E63490343F
:102B2200FA3490340D349134F0349034B234903419
:102B32006A3491346F34913434349134653491343D
:102B420073349134803083120313C7064B08A300F9
:102B52004A08A2004908A1004808A0004708A700A7
:102B62004608A6004508A5004408A4000A128A15D2
:102B7200A0250A168A11831203132308C70022080C
:102B8200C6002108C5002008C4000800F601F701AC
:102B9200721CCC2DCD2DD32D7408F6070318F70A1D
:102BA2007508F70701300310F40DF50DFF3E031D04
:102BB200D42D01300310F30CF20CFF3E031DDB2D6C
:102BC20072087304031DE62DE72DC92D7708F30063
:102BD2007608F200080083120313A400A001A101E9
:102BE2007208F400F5017408A2007508A300241C01
:102BF200FB2DFC2D022E2208A0070318A10A230890
:102C0200A10701300310A20DA30DFF3E031D032EE9
:102C12000310A40C2408031D0F2E102EF82D2108DA
:102C2200F3002008F2000800F20178080A168A115F
:102C320061250A168A11332EF201F20A7708FF0083
:102C4200760884000A168A1177210A168A110A1652
:102C52008A1161250A168A110130F6070318F70A4C
:102C62000030F707770883120313FF007608840009
:102C72000A168A1177210A168A11003A031D422E7A
:102C8200432E1D2E0800C330F700CD30F600F60BA0
:102C9200482EF70B482EF20133300A168A116125AD
:102CA2000A168A111B30F7009E30F600F60B572EDB
:102CB200F70B572E0000F20133300A168A116125F4
:102CC2000A168A11A630F600F60B652E0000F201F4
:102CD20033300A168A1161250A168A11702E712E56
:102CE2000000F20130300A168A1161250A168A1193
:102CF200A630F600F60B7B2E0000F20101300A1618
:102D02008A1161250A168A11A630F600F60B872E63
:102D12000000F2010C300A168A1161250A168A1186
:102D2200A630F600F60B932E000008008312031360
:102D320006189C2E9D2EEC2E0711121187140A12D2
:102D42008A11EF270A168A118F30F6009030F700A9
:102D52008030F8000A168A1115260A168A1169307F
:102D6200F6009030F7009030F8000A168A11152606
:102D72000A168A1183120313061CC02EC12EBB2E03
:102D82000A128A11EF270A168A118330F600903050
:102D9200F7008030F8000A168A1115260A168A11E1
:102DA2002630F6009130F700C030F8000A168A117A
:102DB20015260A168A110030F6009030F700D0303E
:102DC200F8000A168A1115260A168A1183120313AD
:102DD2000715121587100800F701F51FF12EF22EC4
:102DE200F92EF409F509F40A0319F50AF701F70AAD
:102DF200F31FFC2EFD2E022FF209F309F20A03192A
:102E0200F30A720873040319072F082F372FF601EC
:102E1200F60A162F01300310F20DF30DFF3E031DCB
:102E22000C2F0130FF007F08F607F31F192F1A2F0E
:102E32000B2F73087502031D202F72087402031CE6
:102E4200232F242F2A2F7208F4027308031CF50380
:102E5200F50201300310F30CF20CFF3E031D2B2F81
:102E62000130F602031D362F372F1A2F7708031968
:102E72003B2F3C2F412FF409F509F40A0319F50AF7
:102E82007508F3007408F200080083120313A80106
:102E92002808803EF800FF300A168A1133250A16E8
:102EA2008A110130FF007F0883120313A807103034
:102EB2002802031C5D2F5E2F492F9B30F6009030B5
:102EC200F700C230F8000A168A1115260A168A116E
:102ED2001030F6009030F7009130F8000A168A118F
:102EE20015260A168A1183120313A9012908D03E56
:102EF200F800FF300A168A1133250A168A110130AA
:102F0200FF007F0883120313A90710302902031C54
:102F12008B2F8C2F772F1A3083120313A7005E306A
:102F2200A6006D30A500A50B942FA60B942FA70B1E
:102F3200942F9B2F0A128A11EF270A168A11080072
:102F4200F3007308031DA62FA72FAC2F83120313C0
:102F520006083F39FF2F3F30831203130605F200A4
:102F62003F3072060319B62FB72FC22F6E0803190E
:102F7200BB2FBC2FC22FEE01EB0106083F39EA003E
:102F8200FE2F6E08031DC62FC72FD92F06083F3903
:102F92006A06031DCD2FCE2FD92F1E306B020318C8
:102FA200D32FD42FD92F0130FF007F08EB07FE2F3C
:102FB2001E306B06031DDE2FDF2FE62F0130FF00D0
:102FC2007F08EB076A088038FF2F3F300605F200C2
:102FD2003F307206031DEE2FEF2FFE2F6E08031DEA
:102FE200F32FF42FFE2FEE01EE0A1E306B020318B0
:0E2FF200FB2FFC2FFE2F6A08FF2F3F30080038
:02400E00FB3F76
:00000001FF
